:100000000C945E000C9486000C9486000C94860080
:100010000C9486000C9486000C9486000C9440038B
:100020000C9486000C9486000C9486000C94860038
:100030000C9486000C9486000C9486000C94860028
:100040000C949C030C9486000C9486000C948600FF
:100050000C9486000C9486000C9486000C94860008
:100060000C9486000C948600000000080002010039
:100070000003040700000000000000000200000070
:1000800000250028002B0000000000240027002A83
:100090000004040404040404040202020202020331
:1000A000030303030301020408102040800102043B
:1000B00008102001020408102000370611241FBE7A
:1000C000CFEFD8E0DEBFCDBF11E0A0E0B1E0E6E7C2
:1000D000F1E102C005900D92AA32B107D9F721E0F3
:1000E000AAE2B1E001C01D92A036B207E1F710E02C
:1000F000CEE5D0E004C02197FE010E94B308CD35C3
:10010000D107C9F70E94E6030C94B9080C940000CB
:1001100090E0FC01EB55FF4F24918F569F4FFC015F
:100120008491882399F090E0880F991FFC01E9578A
:10013000FF4FA591B491FC01E358FF4F8591949135
:100140008FB7F894EC91E22BEC938FBF0895AF92A8
:10015000BF92CF92DF92EF92FF920F931F93CF93B4
:10016000DF936C017B018B01040F151FEB015E0116
:10017000AE18BF08C017D10759F06991D601ED91AB
:10018000FC910190F081E02DC6010995892B79F74A
:10019000C501DF91CF911F910F91FF90EF90DF90FC
:1001A000CF90BF90AF90089590E0FC01E859FF4FC9
:1001B0002491FC01EB55FF4F3491FC01EF56FF4FAA
:1001C000E491EE23C9F0222339F0233001F1A8F4A1
:1001D000213019F1223029F1F0E0EE0FFF1FE35832
:1001E000FF4FA591B4918FB7F894EC91611126C09F
:1001F00030953E233C938FBF08952730A9F02830D7
:10020000C9F0243049F7809180008F7D03C0809130
:1002100080008F7780938000DFCF84B58F7784BD97
:10022000DBCF84B58F7DFBCF8091B0008F7780933B
:10023000B000D2CF8091B0008F7DF9CF3E2BDACFC6
:100240009091000189130BC0ECE7F0E0E4919FEF7F
:1002500090930001E13049F028F0E23061F060E075
:100260000C94D40010926E00FACF90916F009D7F95
:1002700090936F00F4CF909170009D7F90937000E9
:1002800091E09093B0009091B100987F946090932A
:10029000B1001092B300E3CF3FB7F89480912F01E3
:1002A00090913001A0913101B091320126B5A89B07
:1002B00005C02F3F19F00196A11DB11D3FBFBA2FF8
:1002C000A92F982F8827BC01CD01620F711D811DB8
:1002D000911D42E0660F771F881F991F4A95D1F73D
:1002E00008958F929F92AF92BF92CF92DF92EF923A
:1002F000FF920E944C014B015C0184EFC82EDD246B
:10030000D394E12CF12C0E944C01681979098A09D7
:100310009B09683E734081059105A8F321E0C21A4C
:10032000D108E108F10888EE880E83E0981EA11C30
:10033000B11CC114D104E104F10429F7FF90EF903E
:10034000DF90CF90BF90AF909F908F9008950895C9
:1003500090E080E00895FC0101900020E9F73197DA
:10036000AF01481B590BBC0188E491E00C94A70035
:100370008F929F92AF92BF920F931F93CF93DF9371
:10038000CDB7DEB7A1970FB6F894DEBF0FBECDBFD5
:1003900019A2423008F44AE08E010F5D1F4F842EEF
:1003A000912CB12CA12CA50194010E949108E62F5B
:1003B000B901CA01EA30F4F4E05DD801EE938D0191
:1003C000232B242B252B79F790E080E0109719F050
:1003D000CD010E94AB01A1960FB6F894DEBF0FBE0F
:1003E000CDBFDF91CF911F910F91BF90AF909F90A4
:1003F0008F900895E95CE1CFCF93DF93EC0160E04B
:100400008E810E94D40061E08E810E94D40060E061
:100410008E810E94D4008BE891E00197F1F7DF9183
:10042000CF910895CF92DF92EF92FF920F931F9397
:10043000CF93DF936C017C0187E0E80EF11CD0E0E4
:10044000C0E0062F10E0B8010C2E02C0759567952C
:100450000A94E2F76170F70181917F010E94D40054
:100460002196C430D10579F7C601DF91CF911F9154
:100470000F91FF90EF90DF90CF900C94FC01CF9202
:10048000DF92EF92FF920F931F93CF93DF93EC01D4
:10049000F62E642F8C810E94D4008D818F3F19F03D
:1004A00060E00E94D4000F2D10E08F8584FF25C0EE
:1004B0006E0187E0C80ED11CF12CE12CB8010E2C86
:1004C00002C0759567950A94E2F76170F601819113
:1004D0006F010E94D400FFEFEF1AFF0A88E0E816D0
:1004E000F10461F7CE01DF91CF911F910F91FF9041
:1004F000EF90DF90CF900C94FC01B80184E07595EB
:1005000067958A95E1F7CE010E9412026F2DCE0108
:10051000DF91CF911F910F91FF90EF90DF90CF90DF
:100520000C94120240E0682F88E491E00C943F02A2
:10053000CF93DF93823029F4909157019860909384
:10054000570180935B0110925C0180E480935D0110
:1005500080E180935E0180E580935F0180914C0192
:100560000E94880080914D018F3F11F00E94880009
:1005700080914E010E948800C8E4D1E09E01285479
:1005800031408091570184FD0AC084E090E02196BB
:10059000281739073CF48E810E948800EFCF88E04D
:1005A00090E0F5CF8BE39DE00197F1F760E080915B
:1005B0004C010E94D40060E080914E010E94D40062
:1005C00080914D018F3F19F060E00E94D40080912E
:1005D000570184FD39C063E088E491E00E94120273
:1005E000CBE4D6E4CE010197F1F763E088E491E033
:1005F0000E9412022197F1F763E088E491E00E94E3
:10060000120283E592E00197F1F762E088E491E05D
:100610000E9412028091570180620E94920284E03F
:10062000809358018CE00E94920281E00E94920225
:100630008BE39FE10197F1F782E08093590186E017
:10064000DF91CF910C94920280620E9492028BE41F
:1006500096E40197F1F78091570180620E9492021F
:1006600083E592E00197F1F78091570180620E9443
:100670009202D0CF41E00E943F0281E090E00895D5
:100680001F920F920FB60F9211242F933F934F9307
:100690005F936F937F938F939F93AF93BF93EF93EA
:1006A000FF938091380190913901A0913A01B09166
:1006B0003B01892B8A2B8B2BD1F190913301E09157
:1006C0003401F09135018081892780838091380140
:1006D00090913901A0913A01B0913B011816190689
:1006E0001A061B069CF48091380190913901A09163
:1006F0003A01B0913B010197A109B10980933801FA
:1007000090933901A0933A01B0933B01FF91EF918F
:10071000BF91AF919F918F917F916F915F914F9119
:100720003F912F910F900FBE0F901F9018958091C1
:1007300000010E942001EACF1F920F920FB60F9284
:1007400011242F933F938F939F93AF93BF938091E7
:100750002B0190912C01A0912D01B0912E0130918F
:100760002A0123E0230F2D3758F50196A11DB11D55
:1007700020932A0180932B0190932C01A0932D01AB
:10078000B0932E0180912F0190913001A091310101
:10079000B09132010196A11DB11D80932F0190935C
:1007A0003001A0933101B0933201BF91AF919F917D
:1007B0008F913F912F910F900FBE0F901F90189522
:1007C00026E8230F0296A11DB11DD2CF789484B5DF
:1007D000826084BD84B5816084BD85B5826085BD3D
:1007E00085B5816085BD80916E00816080936E00CB
:1007F00010928100809181008260809381008091BD
:10080000810081608093810080918000816080936D
:1008100080008091B10084608093B1008091B0002D
:1008200081608093B00080917A00846080937A0028
:1008300080917A00826080937A0080917A00816052
:1008400080937A0080917A00806880937A00109279
:10085000C10082E00E94980288E00E9488008AE03D
:100860000E9488003EE9232E30E0332EC2EBD0E018
:1008700088248A94982C540110E410937C00809171
:100880007A00806480937A0080917A0086FDFCCFA4
:100890008091780060917900762F682F072E000CE8
:1008A000880B990B0E946A0726EF38E24CE950E466
:1008B0000E941F0820E030E040E251E40E94C70699
:1008C00060934401709345018093460190934701E2
:1008D000E1E080915B018111E0E0E195F0E0E85B0F
:1008E000FE4F848980680E9492028DE091E00E9410
:1008F000AB01C0904401D0904501E0904601F090DA
:100900004701A7019601C701B6010E948C08882300
:1009100009F448C08AE191E00E94AB0186E291E0CF
:100920000E94AB0120E030E048E452E460914401D1
:100930007091450180914601909147010E941A08EB
:1009400087FD6DC161E08AE00E94D4000E947101C0
:10095000809100018D3009F0B9C0ECE7F0E004911E
:1009600007FD52C18DE00E948800002309F41CC1DC
:10097000023009F02DC18091B100887F856080939D
:10098000B10089E88093B3008092380190923901D8
:10099000A0923A01B0923B018091700082608093F6
:1009A000700032C126013701E89477F82FEF3FEF4E
:1009B0004FE75FE7C301B2010E948C0881110DC0AF
:1009C0002FEF3FEF4FE75FE7C301B2010E94C2067E
:1009D00018161CF48EE191E09FCF2FEF3FEF4FE709
:1009E0005FE4C701B6010E941A0818161CF482E2DF
:1009F00091E092CF2FEF3FEF4FE75FECC701B601D9
:100A00000E94C20687FDF3CF20E030E0A901C701B4
:100A1000B6010E94C20687FF0AC041E06DE288E489
:100A200091E00E943F02F7FAF094F7F8F0942AE080
:100A300037ED43EA5BE3C701B6010E9456062B017E
:100A40003C010E9439076B017C010E9468079B01F1
:100A5000AC01C301B2010E9455062B013C014AE0E2
:100A6000C701B6010E94B80141E06EE288E491E05E
:100A70000E943F0220E030E040E251E4C301B201B5
:100A80000E941F082B013C010E9439076B01F12CC9
:100A9000E12C4AE0C701B6010E94B801C701B601C6
:100AA0000E9468079B01AC01C301B2010E94550678
:100AB00020E030E040E251E40E941F080E94390724
:100AC00090E080E04AE00E94B80128CF8F3F09F013
:100AD0009BC08DE080930001ECE7F0E004910F3FB4
:100AE00009F492C0013011F148F0023009F43BC022
:100AF00007FD8AC08DE00E9488003ACF14BC15BC67
:100B000084B5826084BD85B5816085BDF101849125
:100B1000E82FF0E0EE0FFF1FE358FF4F859194910F
:100B2000FE0184918093370100E01CCF1092800079
:100B30001092810080918100886080938100809173
:100B40008100816080938100F1018491E82FF0E0C1
:100B5000EE0FFF1FE358FF4F85919491FE018491A2
:100B600080933601FFCE1092B0001092B1008091B8
:100B7000B00082608093B0008091B100816080936A
:100B8000B100F1018491E82FF0E0EE0FFF1FE35870
:100B9000FF4F859194919093350180933401FE012C
:100BA000849180933301DECE85B5887F846085BDD6
:100BB00084E487BD8092400190924101A09242015D
:100BC000B092430180916E00826080936E001CC0E1
:100BD000013009F044C080918100887F816080935A
:100BE000810080E795E4909389008093880080924B
:100BF0003C0190923D01A0923E01B0923F01809154
:100C00006F00826080936F000E9471018DE00E94EE
:100C100020010E94710161E088E00E94D40020E080
:100C200030E048E452E460914401709145018091C4
:100C30004601909147010E94C20687FF08C060E00C
:100C40008AE00E94D40060E088E00E94D400E0E0E6
:100C5000F0E0EF2B09F411CE0E9400000DCE02301F
:100C600021F00111D1CF80E7A4CF80E78BCEE8E45B
:100C7000F1E01382128285E091E0918380838CE021
:100C800084838FEF85838BE0868385E0878384E090
:100C9000808783E0818782E08287138614861586A9
:100CA0001686178681E00C9498025058BB27AA2715
:100CB0000E946D060C94E0070E94D20738F00E9453
:100CC000D90720F039F49F3F19F426F40C94CF078C
:100CD0000EF4E095E7FB0C94C907E92F0E94F10799
:100CE00058F3BA17620773078407950720F079F461
:100CF000A6F50C9413080EF4E0950B2EBA2FA02D38
:100D00000B01B90190010C01CA01A0011124FF27B8
:100D1000591B99F0593F50F4503E68F11A16F040B3
:100D2000A22F232F342F4427585FF3CF46953795B2
:100D30002795A795F0405395C9F77EF41F16BA0B77
:100D4000620B730B840BBAF09150A1F0FF0FBB1F25
:100D5000661F771F881FC2F70EC0BA0F621F731F6E
:100D6000841F48F4879577956795B795F7959E3FCB
:100D700008F0B0CF9395880F08F09927EE0F97955C
:100D8000879508950E94A50708F481E008950E94C0
:100D9000DB060C94E0070E94D90758F00E94D207A6
:100DA00040F029F45F3F29F00C94C90751110C94CD
:100DB00014080C94CF070E94F10768F39923B1F34C
:100DC000552391F3951B550BBB27AA276217730771
:100DD000840738F09F5F5F4F220F331F441FAA1F05
:100DE000A9F335D00E2E3AF0E0E832D091505040C1
:100DF000E695001CCAF72BD0FE2F29D0660F771F6F
:100E0000881FBB1F261737074807AB07B0E809F054
:100E1000BB0B802DBF01FF2793585F4F3AF09E3FD9
:100E2000510578F00C94C9070C9414085F3FE4F363
:100E3000983ED4F3869577956795B795F7959F5F1C
:100E4000C9F7880F911D9695879597F90895E1E068
:100E5000660F771F881FBB1F621773078407BA07C7
:100E600020F0621B730B840BBA0BEE1F88F7E09522
:100E700008950E94F90788F09F5798F0B92F992795
:100E8000B751B0F0E1F0660F771F881F991F1AF075
:100E9000BA95C9F714C0B13091F00E941308B1E0BF
:100EA00008950C941308672F782F8827B85F39F0BE
:100EB000B93FCCF3869577956795B395D9F73EF40E
:100EC00090958095709561957F4F8F4F9F4F0895B6
:100ED000E89409C097FB3EF49095809570956195D4
:100EE0007F4F8F4F9F4F9923A9F0F92F96E9BB278A
:100EF0009395F695879577956795B795F111F8CF06
:100F0000FAF4BB0F11F460FF1BC06F5F7F4F8F4F70
:100F10009F4F16C0882311F096E911C0772321F066
:100F20009EE8872F762F05C0662371F096E8862FFE
:100F300070E060E02AF09A95660F771F881FDAF755
:100F4000880F9695879597F90895990F0008550F82
:100F5000AA0BE0E8FEEF16161706E807F907C0F03F
:100F600012161306E407F50798F0621B730B840B47
:100F7000950B39F40A2661F0232B242B252B21F421
:100F800008950A2609F4A140A6958FEF811D811DC1
:100F9000089597F99F6780E870E060E008959FEFFB
:100FA00080EC089500240A94161617061806090600
:100FB000089500240A9412161306140605060895CF
:100FC000092E0394000C11F4882352F0BB0F40F457
:100FD000BF2B11F460FF04C06F5F7F4F8F4F9F4F97
:100FE000089557FD9058440F551F59F05F3F71F019
:100FF0004795880F97FB991F61F09F3F79F0879580
:101000000895121613061406551FF2CF4695F1DF08
:1010100008C0161617061806991FF1CF8695710598
:10102000610508940895E894BB2766277727CB01CC
:1010300097F908950E94A50708F48FEF08950E947C
:1010400032080C94E0070E94D20738F00E94D907BA
:1010500020F0952311F00C94C9070C94CF071124AC
:101060000C9414080E94F10770F3959FC1F3950F3B
:1010700050E0551F629FF001729FBB27F00DB11D1C
:10108000639FAA27F00DB11DAA1F649F6627B00DAC
:10109000A11D661F829F2227B00DA11D621F739F95
:1010A000B00DA11D621F839FA00D611D221F749FA3
:1010B0003327A00D611D231F849F600D211D822FEA
:1010C000762F6A2F11249F5750409AF0F1F0882311
:1010D0004AF0EE0FFF1FBB1F661F771F881F91503E
:1010E0005040A9F79E3F510580F00C94C9070C941D
:1010F00014085F3FE4F3983ED4F38695779567959F
:10110000B795F795E7959F5FC1F7FE2B880F911D67
:101110009695879597F908950E94A507880B990BD6
:101120000895A1E21A2EAA1BBB1BFD010DC0AA1F28
:10113000BB1FEE1FFF1FA217B307E407F50720F040
:10114000A21BB30BE40BF50B661F771F881F991FBB
:101150001A9469F760957095809590959B01AC0104
:10116000BD01CF010895EE0FFF1F0590F491E02D12
:061170000994F894FFCF82
:10117600FF000000003A03A700A801A70154656D0F
:101186007020696E2043203D20006E616E00696EFE
:0A11960066006F7666000D0A000087
:00000001FF
